:020000040000FA
:040000001EEF00F0FF
:100008003282F2A40AEF00F00CEF00F010EF00F0DB
:10001800F2948FEC01F0232AA1A215EF00F017EF5C
:1000280000F01CEF00F0A1928AEC01F0222A212AAC
:100038003292110037EF01F02650030DF3CF28F06C
:10004800F4CF29F028502424D96E29502520DA6EBF
:10005800DECF2DF0DDCF2EF02750D8B436EF00F0EC
:1000680038EF00F05CEF00F02650030D24C028F0B4
:1000780025C029F0F3502826F4502922020E2824FE
:10008800D96E000E2920DA6EDF502A6E010E2B6E13
:100098002A2A51EF00F0D8902B362A2E4FEF00F085
:1000A8002DC0D9FF2EC0DAFF2B50DF1281EF00F0F0
:1000B8002650030D24C028F025C029F0F350282627
:1000C800F4502922020E2824D96E000E2920DA6E57
:1000D800DF502A6E010E2B6E2A2A75EF00F0D89099
:1000E8002B362A2E73EF00F02B50FF0A2C6E2DC0F2
:1000F800D9FF2EC0DAFF2C50DF1612002050D8A4EA
:1001080088EF00F08AEF00F096EF00F083EC01F042
:1001180024C01AF025C01BF023C01FF0010E206E6A
:10012800C4EF00F01AC028F01BC029F0270E2B6E70
:10013800100E2A6EC5EC00F00009D8B4A6EF00F046
:10014800A8EF00F0C4EF00F0040E246E000E256E38
:10015800000E266E04EC01F0316E040E246E000EC3
:10016800256E000E266E3150D8B4BDEF00F0C0EFFA
:1001780000F0010EC1EF00F0000E276E20EC00F039
:100188001200000E2E6E83EC01F024C02FF025C063
:1001980030F028502F5C29503058D8B0D6EF00F0F6
:1001A800D8EF00F0EFEF00F0281C2C6E291C2D6E04
:1001B8002F502C2630502D222A502C5C2B502D5895
:1001C800D8A0E9EF00F0EBEF00F002EF01F0010E2C
:1001D8002E6E02EF01F028502F5C2C6E29503058FB
:1001E8002D6E2A502C5C2B502D58D8A0FEEF00F015
:1001F80000EF01F002EF01F0EBEF00F02E501200DB
:100208002650030D24C027F025C028F0F3502726D8
:10021800F4502822020E2724D96E000E2820DA6E08
:10022800DF50296E2650030DF3CF2AF0F4CF2BF0C0
:100238002A502424D96E2B502520DA6EDECF2CF0DC
:10024800DDCF2DF02CC0D9FF2DC0DAFFDF502E6E88
:10025800292A31EF01F0D8902E32292E2FEF01F004
:100268002E50010B1200BE0EF66E020EF76E000E37
:10027800F86E00EE01F010EE15F00900F5CFEEFF74
:10028800E550E150FAE100EE16F00E0EEE6AE806CF
:10029800FDE13290329200016AEF01F0F29E74ECB7
:1002A80001F07CEC01F0F28EF28CF28AD58EB190DE
:1002B80094EC01F01200820F018B0F008B0F058B5D
:0B02C8000F068A0F028A0F038A0F0442
:1002D40052EC01F095EC01F082EC00F06EEF01F0CD
:1002E4001EEF00F094909482949A949C9394939625
:1002F40093981200950ED56E670ED36E050EB16EEF
:100304001200D750266ED650246E26C025F0120057
:10031400000EB36E000EB26E1200000ED76E000E09
:08032400D66E12001200120057
:020000040020DA
:08000000FFFFFFFFFFFFFFFF00
:020000040030CA
:0E000000FF081F1EFF8B81FF0FC00FE00F4097
:00000001FF
