:020000040000FA
:040000001EEF00F0FF
:100008002E82F2A40AEF00F00CEF00F010EF00F0DF
:10001800F2948FEC01F02D2AA1A215EF00F017EF52
:1000280000F01CEF00F0A1928AEC01F02C2A2B2A98
:100038002E92110037EF01F01850030DF3CF1AF08C
:10004800F4CF1BF01A501624D96E1B501720DA6E05
:10005800DECF1FF0DDCF20F01950D8B436EF00F016
:1000680038EF00F05CEF00F01850030D16C01AF0DE
:1000780017C01BF0F3501A26F4501B22020E1A2444
:10008800D96E000E1B20DA6EDF501C6E010E1D6E3D
:100098001C2A51EF00F0D8901D361C2E4FEF00F0AF
:1000A8001FC0D9FF20C0DAFF1D50DF1281EF00F01A
:1000B8001850030D16C01AF017C01BF0F3501A267B
:1000C800F4501B22020E1A24D96E000E1B20DA6E81
:1000D800DF501C6E010E1D6E1C2A75EF00F0D890C3
:1000E8001D361C2E73EF00F01D50FF0A1E6E1FC038
:1000F800D9FF20C0DAFF1E50DF1612002A50D8A4FC
:1001080088EF00F08AEF00F096EF00F083EC01F042
:1001180016C024F017C025F02DC029F0010E2A6E54
:10012800C4EF00F024C01AF025C01BF0270E1D6E86
:10013800100E1C6EC5EC00F00009D8B4A6EF00F054
:10014800A8EF00F0C4EF00F0040E166E000E176E54
:10015800000E186E04EC01F0236E040E166E000EED
:10016800176E000E186E2350D8B4BDEF00F0C0EF24
:1001780000F0010EC1EF00F0000E196E20EC00F047
:100188001200000E206E83EC01F016C021F017C09B
:1001980022F01A50215C1B502258D8B0D6EF00F03C
:1001A800D8EF00F0EFEF00F01A1C1E6E1B1C1F6E3C
:1001B80021501E2622501F221C501E5C1D501F5805
:1001C800D8A0E9EF00F0EBEF00F002EF01F0010E2C
:1001D800206E02EF01F01A50215C1E6E1B5022584F
:1001E8001F6E1C501E5C1D501F58D8A0FEEF00F05B
:1001F80000EF01F002EF01F0EBEF00F020501200E9
:100208001850030D16C019F017C01AF0F35019262C
:10021800F4501A22020E1924D96E000E1A20DA6E32
:10022800DF501B6E1850030DF3CF1CF0F4CF1DF0F8
:100238001C501624D96E1D501720DA6EDECF1EF022
:10024800DDCF1FF01EC0D9FF1FC0DAFFDF50206EC0
:100258001B2A31EF01F0D89020321B2E2FEF01F02E
:100268002050010B1200BE0EF66E020EF76E000E45
:10027800F86E00EE01F010EE15F00900F5CFEEFF74
:10028800E550E150FAE100EE24F00A0EEE6AE806C5
:10029800FDE12E902E9200016AEF01F0F29E74ECBF
:1002A80001F07CEC01F0F28EF28CF28AD58EB190DE
:1002B80094EC01F01200820F018B0F008B0F058B5D
:0B02C8000F068A0F028A0F038A0F0442
:1002D40052EC01F095EC01F082EC00F06EEF01F0CD
:1002E4001EEF00F094909482949A949C9394939625
:1002F40093981200950ED56E670ED36E050EB16EEF
:100304001200D750186ED650166E18C017F012008F
:10031400000EB36E000EB26E1200000ED76E000E09
:08032400D66E12001200120057
:020000040020DA
:08000000FFFFFFFFFFFFFFFF00
:020000040030CA
:0E000000FF081F1EFF8B81FF0FC00FE00F4097
:00000001FF
