:020000040000FA
:040000002FEF00F0EE
:100008005182F2A40AEF00F00CEF00F021EF00F0AB
:10001800F294D9EC01F08AA414EF00F018EF00F084
:10002800376A372A19EF00F0376A374637468A5059
:100038003718FB0B37188A6E502AA1A226EF00F05A
:1000480028EF00F02DEF00F0A192D4EC01F04F2A38
:100058004E2A51921100F2EF00F03A50030DF3CFFF
:100068003CF0F4CF3DF03C503824D96E3D50392057
:10007800DA6EDECF41F0DDCF42F03B50D8B447EF27
:1000880000F049EF00F06DEF00F03A50030D38C072
:100098003CF039C03DF0F3503C26F4503D22020EAE
:1000A8003C24D96E000E3D20DA6EDF503E6E010E04
:1000B8003F6E3E2A62EF00F0D8903F363E2E60EF4A
:1000C80000F041C0D9FF42C0DAFF3F50DF1292EF83
:1000D80000F03A50030D38C03CF039C03DF0F35001
:1000E8003C26F4503D22020E3C24D96E000E3D20E1
:1000F800DA6EDF503E6E010E3F6E3E2A86EF00F04C
:10010800D8903F363E2E84EF00F03F50FF0A406EF5
:1001180041C0D9FF42C0DAFF4050DF1612003A5002
:10012800030D38C03BF039C03CF0F3503B26F45087
:100138003C22020E3B24D96E000E3C20DA6EDF50C2
:100148003D6E3A50030DF3CF3EF0F4CF3FF03E50F2
:100158003824D96E3F503920DA6EDECF40F0DDCF3B
:1001680041F040C0D9FF41C0DAFFDF50426E3D2A5E
:10017800C0EF00F0D89042323D2EBEEF00F0425062
:10018800010B1200466E4950D8A4CDEF00F0CFEF16
:1001980000F0D6EF00F0010E4B6E010E496E4FC015
:1001A8004AF0B1804F504A18D8B4DDEF00F0DFEFC5
:1001B80000F0E4EF00F0B190000E4B6E000E496EB7
:1001C800010E386E000E396E46C03AF04BC03BF057
:1001D80031EC00F046501DEC01F012007E0EF66E78
:1001E800030EF76E000EF86E00EE60F010EE1BF0D6
:1001F8000900F5CFEEFFE550E150FAE18A0EF66E00
:10020800020EF76E000EF86E00EE01F010EE36F0FA
:100218000900F5CFEEFFE550E150FAE100EE47F0B6
:100228000A0EEE6AE806FDE151905192000160EF76
:1002380001F0456E010E386E000E396E45C03AF079
:1002480093EC00F0436E600E386E000E396E45C0B8
:100258003AF093EC00F0446E1C0E386E000E396EC6
:1002680045C03AF044504318D8B43DEF01F040EF90
:1002780001F0010E41EF01F0000E3B6E31EC00F091
:100288001200890F00890F01890F02890F03890F56
:1002980004890F05890F06890F078A0F018B0F0044
:1002A8008B0F028B0F018B0F058B0F068B0F078AA5
:1002B8000F038A0F048D0F00A3EC01F08DEC01F001
:1002C8004E50C6EC00F0090E4E646DEF01F06FEF72
:1002D80001F064EF01F0000E4E6E8DEC01F064EF5A
:1002E80001F02FEF00F0000E436E1C0E386E000E6A
:1002F800396E43C03AF0010E3B6E31EC00F0432AF0
:10030800080E43648AEF01F08CEF01F079EF01F0F9
:100318001200000E436E1C0E386E000E396E43C07C
:100328003AF0000E3B6E31EC00F0432A080E4364AD
:10033800A0EF01F0A2EF01F08FEF01F01200F29EA2
:10034800B1EC01F08A94CDEC01F0F28EF28CF28AD5
:10035800D58EB19077EC01F01200000E926E000E6F
:10036800946E9380939293949396939895689690AD
:10037800968296841200830F00830F01830F0283F5
:100388000F03830F04830F05830F06830F07810F65
:010398000064
:10039A00950ED56E670ED36E050EB16E1200000E65
:1003AA00B36E000EB26E1200000ED76E000ED66E3D
:0203BA0012002F
:020000040020DA
:08000000FFFFFFFFFFFFFFFF00
:020000040030CA
:0E000000FF081F1EFF8B81FF0FC00FE00F4097
:00000001FF
